:020000040800F2
:1000000000280020891A0008F9180008FF180008C5
:10001000051900080B19000811190008000000005C
:100020000000000000000000000000001719000898
:1000300023190008000000002F1900083B190008D0
:10004000D11A0008D11A0008D11A0008D11A0008E4
:10005000D11A0008D11A0008D11A0008D11A0008D4
:10006000D11A0008D11A0008D11A0008D11A0008C4
:10007000D11A0008D11A0008D11A0008D11A0008B4
:10008000D11A0008D11A0008D11A0008D11A0008A4
:10009000D11A0008D11A0008D11A0008D11A000894
:1000A000D11A0008D11A0008D11A0008D11A000884
:1000B00049190008D11A000800000000D11A0008F0
:1000C000D11A00080000000000000000D11A00084A
:1000D00000000000D11A0008D11A0008000000003A
:1000E000D11A0008D11A0008D11A00080000000037
:1000F0000000000000000000000000000000000000
:0C01000000000000000000005FF808F1A3
:10010C0010B5054C237833B9044B13B10448AFF345
:10011C0000800123237010BDC000002000000000EF
:10012C009031000808B5034B1BB103490348AFF3EA
:10013C00008008BD00000000C400002090310008C1
:10014C0080B400AF064B1B68012B04D1044B00227A
:10015C001A60012300E000231846BD4680BC70479E
:10016C00DC00002080B400AF034B01221A6000BFFA
:10017C00BD4680BC704700BFDC00002080B500AFDE
:10018C001F4B1B681F4A13601F4B1B681C4A1360D4
:10019C004FF400511D4801F081FF03461A461A4BDB
:1001AC001A60184B1A68164B1B689A4225D1144BCF
:1001BC001A68154B1B689A421FD1134B1A68144BC3
:1001CC001B689A420DD0104B1B68114A13600E4BE2
:1001DC001B68002B11D10F4BC8221A60FFF7C2FF0E
:1001EC000BE00C4B1B68013B0A4A1360094B1B6864
:1001FC00002B02D1064B01221A6000BF80BD00BF4C
:10020C00040000200000002008000020000801402D
:10021C000C0000203000002080B400AF064B1B689F
:10022C00012B04D1044B00221A60012300E00023AF
:10023C001846BD4680BC7047E000002080B400AF7B
:10024C00034B01221A6000BFBD4680BC704700BF43
:10025C00E000002080B500AF1F4B1B681F4A1360E5
:10026C001F4B1B681C4A13604FF480411D4801F062
:10027C0015FF03461A461A4B1A60184B1A68164B90
:10028C001B689A4225D1144B1A68154B1B689A426D
:10029C001FD1134B1A68144B1B689A420DD0104B8C
:1002AC001B68114A13600E4B1B68002B11D10F4BAE
:1002BC00C8221A60FFF7C2FF0BE00C4B1B68013B16
:1002CC000A4A1360094B1B68002B02D1064B012212
:1002DC001A6000BF80BD00BF140000201000002079
:1002EC0018000020000801401C00002030000020F5
:1002FC0080B400AF064B1B68012B04D1044B0022C9
:10030C001A60012300E000231846BD4680BC7047EC
:10031C00E400002080B400AF034B01221A6000BF40
:10032C00BD4680BC704700BFE400002080B500AF24
:10033C001F4B1B681F4A13601F4B1B681C4A136022
:10034C004FF400411D4801F0A9FE03461A461A4B12
:10035C001A60184B1A68164B1B689A4225D1144B1D
:10036C001A68154B1B689A421FD1134B1A68144B11
:10037C001B689A420DD0104B1B68114A13600E4B30
:10038C001B68002B11D10F4BC8221A60FFF7C2FF5C
:10039C000BE00C4B1B68013B0A4A1360094B1B68B2
:1003AC00002B02D1064B01221A6000BF80BD00BF9A
:1003BC00240000202000002028000020000801401C
:1003CC002C0000203000002080B500AFA74B1B682C
:1003DC00032B00F2028301A252F823F0F903000868
:1003EC00B104000835060008F707000800224FF496
:1003FC0080619F4801F069FE00224FF400619C4827
:10040C0001F063FE00224FF480619A4801F05DFE1A
:10041C0000224FF40061974801F057FE00F006FBF4
:10042C00FFF78EFE0346002B00F0D982924B1B681F
:10043C00184601F04DF901224FF400618C4801F08F
:10044C0044FE01224FF40071894801F03EFE012266
:10045C004FF48071864801F038FE01224FF4007190
:10046C00844801F032FE01224FF48071814801F082
:10047C002CFE012280217E4801F027FE01228021E2
:10048C007C4801F022FE794B1B680133774A1360DC
:10049C00764B1B680133794A12681146184600F0F6
:1004AC00AFFF9CE2FFF7B8FE0346002B0FD0744B56
:1004BC001B680133724A13606C4B1B68581C6F4BE2
:1004CC001A686F4B1B681344194600F099FF6D4B6B
:1004DC001B68012B6FD16C4B1B68002B02D0012BBE
:1004EC002FD05BE000224FF48061614801F0EDFDFC
:1004FC0001224FF400615E4801F0E7FD00224FF449
:10050C0080615C4801F0E1FD01224FF40061594823
:10051C0001F0DBFD5C4B1B685C4A52F8233018463B
:10052C0000F04EFC584B1B680233584A52F82330EB
:10053C00184600F0D5FD544B1B680133524A13602A
:10054C002CE001224FF48061494801F0BEFD0022ED
:10055C004FF40061464801F0B8FD01224FF4806170
:10056C00444801F0B2FD00224FF40061414801F013
:10057C00ACFD454B1B68454A52F82330184600F039
:10058C001FFC414B1B680233404A52F8233018467B
:10059C0000F0A6FD3C4B00221A6000BF80213448BD
:1005AC0001F0ABFD8021334801F0A7FD324B1B68F5
:1005BC00184601F08DF8FFF79BFE0346002B0FD079
:1005CC002E4B1A682E4B1B6813442C4A13602B4B72
:1005DC001B681946022000F013FF294B00221A60F9
:1005EC00FFF7AEFD0346002B00F0FB8101228021BA
:1005FC001F4801F06AFD012280211E4801F065FDB3
:10060C001A4B1B680133194A1360184B1B680133D2
:10061C001F4A12681146184600F0F2FE164B1B6872
:10062C00184601F055F8DCE1FFF7F6FD0346002B08
:10063C000FD0184B1B680133164A13600B4B1B6809
:10064C00581C134B1A68134B1B681344194600F0C3
:10065C00D7FE0C4B1B68012B40F089800A4B1B68A2
:10066C00002B19D0012B46D072E000BF00010020F6
:10067C0000080140000C0140293100083400002022
:10068C00E800002010010020F400002040000020B1
:10069C0038000020EC00002000224FF480617B48E1
:1006AC0001F013FD01224FF40061784801F00DFDBB
:1006BC0000224FF48061764801F007FD01224FF4CF
:1006CC000061734801F001FD724B1B68724A52F8CD
:1006DC002330184600F074FB6E4B1B6802336E4AD5
:1006EC0052F82330184600F0FBFC6A4B1B680133B0
:1006FC00684A13602CE001224FF48061634801F0DA
:10070C00E4FC00224FF40061604801F0DEFC0122A1
:10071C004FF480615E4801F0D8FC00224FF4006178
:10072C005B4801F0D2FC5B4B1B685B4A52F82330F0
:10073C00184600F045FB574B1B680233564A52F8DB
:10074C002330184600F0CCFC524B00221A6000BF3C
:10075C004FF480714D4801F0D0FC4FF480714C483F
:10076C0001F0CBFC4D4B1B68184600F0B1FFFFF7B6
:10077C00BFFD0346002B12D0494B1A68494B1B682E
:10078C001344474A1360484B1B680133444A1268B0
:10079C001146184600F034FE424B00221A60FFF757
:1007AC00CFFC0346002B00F01E8101224FF4807118
:1007BC00364801F08AFC01224FF48071344801F074
:1007CC0084FC394B1B680133374A1360364B1B686A
:1007DC000133364A12681146184600F011FE2F4BB1
:1007EC001B68184600F074FFFDE0FFF715FD03468B
:1007FC00002B0FD02E4B1B6801332D4A13602A4B54
:10080C001B68581C294B1A68294B1B681344194642
:10081C0000F0F6FD274B1B68012B40F089801D4B27
:10082C001B68002B02D0012B46D072E000224FF443
:10083C008061164801F049FC01224FF40061134815
:10084C0001F043FC00224FF48061114801F03DFCA3
:10085C0001224FF400610E4801F037FC0D4B1B6870
:10086C000D4A52F82330184600F0AAFA094B1B68BF
:10087C000233094A52F82330184600F031FC054B7C
:10088C001B680133034A136043E000BF00080140BA
:10089C00000C0140F4000020400000202931000829
:1008AC0038000020EC000020000100203C0000205B
:1008BC00F00000201001002001224FF480614C4810
:1008CC0001F003FC00224FF40061494801F0FDFBEC
:1008DC0001224FF48061474801F0F7FB00224FF4EE
:1008EC000061444801F0F1FB434B1B68434A52F84A
:1008FC002330184600F064FA3F4B1B6802333F4A22
:10090C0052F82330184600F0EBFB3B4B00221A60E8
:10091C0000BF4FF40071364801F0EFFB4FF400714B
:10092C00344801F0EAFB364B1B68184600F0D0FE49
:10093C00FFF7DEFC0346002B12D0324B1A68324B09
:10094C001B6813442F4A1360304B1B6801332D4A2C
:10095C0012681146184600F053FD2B4B00221A600A
:10096C00FFF7EEFB0346002B3FD001224FF4007142
:10097C001F4801F0AAFB01224FF400711D4801F041
:10098C00A4FB234B1B681E4A126802FB03F35B009B
:10099C00184600F09DFE1B4B1B68194A126802FB9F
:1009AC0003F35B00184600F0A7FE1A4B01221A60F5
:1009BC00194B02221A60164B1B68184A1360114B14
:1009CC001B68174A1360174B01221A60164B012241
:1009DC001A600E4B00221A6007E000BF06E000BF51
:1009EC0004E000BF02E000BF00E000BF00BF80BD1C
:1009FC0000080140000C0140F400002040000020E1
:100A0C00293100083C000020F000002000010020EB
:100A1C0034000020F8000020FC00002030010020F1
:100A2C002C010020040100200801002080B500AF3B
:100A3C0000F004F800F0E0F800BF80BD80B500AF16
:100A4C00644B1B68032B00F2BC8001A252F823F00C
:100A5C006D0A0008B50A00080F0B00086F0B0008A0
:100A6C005C4B01221A6000F079FF5B4B1B685B4A00
:100A7C0013605A4B1B68184600F0A2F9574B1B68C1
:100A8C00013B564A1360564B1B685B00184600F03E
:100A9C0047FE514B1B68524A126802FB03F35B0082
:100AAC00184600F015FE93E000F058FF4D4B1B6804
:100ABC00012B11D14C4B1B68484A1360454B022249
:100ACC001A60494B1B68464A126802FB03F35B0031
:100ADC00184600F0FDFD76E0444B1B68012B72D1EB
:100AEC003E4B1B68184600F06BF93C4B1B68013BF6
:100AFC003A4A13603A4B1B685B00184600F010FE34
:100B0C0061E000F043FF374B1B68012B14D1384BCD
:100B1C001B68324A13602F4B03221A60354B01229B
:100B2C001A60334B1B682E4A126802FB03F35B00FE
:100B3C00184600F0CDFD48E02C4B1B68012B44D12E
:100B4C00264B1B68184600F03BF9244B1B68013BF5
:100B5C00224A1360224B1B685B00184600F0E0FD34
:100B6C0033E000F02BFF1F4B1B68012B14D11A4BE9
:100B7C001B681A4A1360174B01221A601D4B012285
:100B8C001A60154B1B68164A126802FB03F35B00D4
:100B9C00184600F09DFD1AE0144B1B68012B16D172
:100BAC000E4B1B68184600F00BF90C4B1B68013BF5
:100BBC000A4A13600A4B1B685B00184600F0B0FD34
:100BCC0005E000BF04E000BF02E000BF00E000BF92
:100BDC0000BF80BDF8000020340000203001002050
:100BEC0029310008100100203C00002020010020C9
:100BFC00380000200401002080B500AF674B1B6853
:100C0C00032B00F2C28001A252F823F0290C000839
:100C1C00770C0008D70C0008370D00085F4B022238
:100C2C001A6000F0FBFE5E4B1B685E4A13605D4B66
:100C3C001B68184600F054FA5A4B1B68013B594A82
:100C4C001360574B1B68584A126802FB03F35B0096
:100C5C00184600F051FD544B1B685B00184600F021
:100C6C00C1FD524B01221A6096E000F0BFFE504BC2
:100C7C001B68012B14D14A4B1B684A4A1360474B23
:100C8C0002221A60494B01221A60454B1B68464AE6
:100C9C00126802FB03F35B00184600F02DFD76E0B2
:100CAC00444B1B68012B72D13E4B1B68184600F05D
:100CBC0017FA3C4B1B68013B3A4A13603A4B1B68D2
:100CCC005B00184600F08EFD61E000F0A7FE384B8B
:100CDC001B68012B14D1384B1B68324A13602F4B05
:100CEC0003221A60314B01221A60334B1B682E4AC7
:100CFC00126802FB03F35B00184600F0FDFC48E0B1
:100D0C002C4B1B68012B44D1264B1B68184600F05A
:100D1C00E7F9244B1B68013B224A1360224B1B68EA
:100D2C005B00184600F05EFD33E000F08FFE204BB8
:100D3C001B68012B14D1214B1B681A4A1360174BEB
:100D4C0001221A60194B01221A601C4B1B68164AAF
:100D5C00126802FB03F35B00184600F0CDFC1AE0AE
:100D6C00144B1B68012B16D10E4B1B68184600F058
:100D7C00B7F90C4B1B68013B0A4A13600A4B1B6802
:100D8C005B00184600F02EFD05E000BF04E000BF3C
:100D9C0002E000BF00E000BF00BF80BDFC000020EF
:100DAC003C0000202C010020293100080801002003
:100DBC0018010020280100203800002034000020F9
:100DCC0080B582B000AF78607B68092B00F280811F
:100DDC0001A252F823F000BF0D0E0008550E0008BA
:100DEC009D0E0008E50E00082D0F0008750F000879
:100DFC00BD0F0008051000084D10000895100008E4
:100E0C0000220121B54801F060F900220221B3480B
:100E1C0001F05BF900220421B04801F056F90022E0
:100E2C000821AE4801F051F900221021AB4801F025
:100E3C004CF900222021A94801F047F90122402158
:100E4C00A64801F042F944E101220121A34801F036
:100E5C003CF900220221A14801F037F900220421BB
:100E6C009E4801F032F9012208219C4801F02DF92D
:100E7C0001221021994801F028F9012220219748DC
:100E8C0001F023F901224021944801F01EF920E1E0
:100E9C0000220121914801F018F9002202218F480B
:100EAC0001F013F9012204218C4801F00EF9002203
:100EBC0008218A4801F009F900221021874801F025
:100ECC0004F901222021854801F0FFF8002240217D
:100EDC00824801F0FAF8FCE0002201217F4801F081
:100EEC00F4F8002202217D4801F0EFF800220421E1
:100EFC007A4801F0EAF800220821784801F0E5F878
:100F0C0001221021754801F0E0F8012220217348DC
:100F1C0001F0DBF800224021704801F0D6F8D8E04F
:100F2C00012201216D4801F0D0F8002202216B480A
:100F3C0001F0CBF800220421684801F0C6F8012228
:100F4C000821664801F0C1F801221021634801F024
:100F5C00BCF800222021614801F0B7F800224021A2
:100F6C005E4801F0B2F8B4E0002201215B4801F0C8
:100F7C00ACF801220221594801F0A7F80022042103
:100F8C00564801F0A2F800220821544801F09DF8BF
:100F9C0001221021514801F098F8002220214F48DD
:100FAC0001F093F8002240214C4801F08EF890E0BB
:100FBC0000220121494801F088F80122022147480A
:100FCC0001F083F800220421444801F07EF800224D
:100FDC000821424801F079F8002210213F4801F025
:100FEC0074F8002220213D4801F06FF800224021C6
:100FFC003A4801F06AF86CE000220121374801F010
:10100C0064F800220221354801F05FF80022042127
:10101C00324801F05AF801220821304801F055F805
:10102C00012210212D4801F050F8012220212B48DB
:10103C0001F04BF801224021284801F046F848E025
:10104C0000220121254801F040F80022022123480A
:10105C0001F03BF800220421204801F036F8002270
:10106C0008211E4801F031F8002210211B4801F024
:10107C002CF800222021194801F027F800224021E9
:10108C00164801F022F824E000220121134801F057
:10109C001CF800220221114801F017F8002204214B
:1010AC000E4801F012F8002208210C4801F00DF84E
:1010BC0001221021094801F008F8002220210748DC
:1010CC0001F003F800224021044800F0FEFF00E08C
:1010DC0000BF00BF0837BD4680BD00BF00080140FF
:1010EC0080B582B000AF78607B68092B00F28081FC
:1010FC0001A252F823F000BF2D1100087511000851
:10110C00BD110008051200084D12000895120008C8
:10111C00DD120008251300086D130008B513000834
:10112C0000220121B54800F0D0FF00220221B34873
:10113C0000F0CBFF00220421B04800F0C6FF0022D3
:10114C000821AE4800F0C1FF00221021AB4800F08E
:10115C00BCFF00222021A94800F0B7FF012240214A
:10116C00A64800F0B2FF44E101220121A34800F09F
:10117C00ACFF00220221A14800F0A7FF00220421AD
:10118C009E4800F0A2FF012208219C4800F09DFF20
:10119C0001221021994800F098FF01222021974844
:1011AC0000F093FF01224021944800F08EFF20E1D3
:1011BC0000220121914800F088FF002202218F4873
:1011CC0000F083FF012204218C4800F07EFF0022F6
:1011DC0008218A4800F079FF00221021874800F08E
:1011EC0074FF01222021854800F06FFF002240216E
:1011FC00824800F06AFFFCE0002201217F4800F0E9
:10120C0064FF002202217D4800F05FFF00220421D0
:10121C007A4800F05AFF00220821784800F055FF68
:10122C0001221021754800F050FF01222021734843
:10123C0000F04BFF00224021704800F046FFD8E040
:10124C00012201216D4800F040FF002202216B4871
:10125C0000F03BFF00220421684800F036FF012219
:10126C000821664800F031FF01221021634800F08C
:10127C002CFF00222021614800F027FF0022402192
:10128C005E4800F022FFB4E0002201215B4800F030
:10129C001CFF01220221594800F017FF00220421F3
:1012AC00564800F012FF00220821544800F00DFFB0
:1012BC0001221021514800F008FF002220214F4844
:1012CC0000F003FF002240214C4800F0FEFE90E0AD
:1012DC0000220121494800F0F8FE01220221474872
:1012EC0000F0F3FE00220421444800F0EEFE002240
:1012FC000821424800F0E9FE002210213F4800F08E
:10130C00E4FE002220213D4800F0DFFE00224021B7
:10131C003A4800F0DAFE6CE000220121374800F078
:10132C00D4FE00220221354800F0CFFE0022042119
:10133C00324800F0CAFE01220821304800F0C5FEF8
:10134C00012210212D4800F0C0FE012220212B4843
:10135C0000F0BBFE01224021284800F0B6FE48E018
:10136C0000220121254800F0B0FE00220221234872
:10137C0000F0ABFE00220421204800F0A6FE002263
:10138C0008211E4800F0A1FE002210211B4800F08D
:10139C009CFE00222021194800F097FE00224021DB
:1013AC00164800F092FE24E000220121134800F0C0
:1013BC008CFE00220221114800F087FE002204213D
:1013CC000E4800F082FE002208210C4800F07DFE41
:1013DC0001221021094800F078FE00222021074844
:1013EC0000F073FE00224021044800F06EFE00E085
:1013FC0000BF00BF0837BD4680BD00BF000C0140D8
:10140C0080B483B000AF786039607B68184A82FB87
:10141C0003129210DB17D31A164A13607968144B17
:10142C0083FB01239A10CB17D21A13469B0013444B
:10143C005B00CA1A0F4B5A603B680D4A82FB0312C1
:10144C009210DB17D31A0B4A93603968084B83FB55
:10145C0001239A10CB17D21A13469B0013445B003E
:10146C00CA1A044BDA6000BF0C37BD4680BC70470B
:10147C00676666664000002080B500AF00F024FB74
:10148C0000F01EF800F0A4F800F056F8094801F03E
:10149C0085FA084B5B680133064AD26802FB03F3FA
:1014AC005B00054AB2FBF3F31A46044B1A60FEF7D5
:1014BC008BFFFCE73401002000127A002931000870
:1014CC0080B590B000AF07F1180328220021184610
:1014DC0001F01CFE3B1D00221A605A609A60DA6013
:1014EC001A610223BB610123BB621023FB62002340
:1014FC007B6307F11803184600F018FE0346002B17
:10150C0001D000F0DFF80F237B600023BB600023C9
:10151C00FB6000233B6100237B613B1D00211846CF
:10152C0001F084F80346002B01D000F0CBF800BF8B
:10153C004037BD4680BD000080B586B000AF07F1D6
:10154C00080300221A605A609A60DA603B46002257
:10155C001A605A601D4B4FF080421A601B4B41F6CB
:10156C003F725A60194B00229A60184B0A22DA60BB
:10157C00164B00221A61154B00229A61134801F098
:10158C00BDF90346002B01D000F09CF84FF48053BA
:10159C00BB6007F1080319460C4801F053FB0346E6
:1015AC00002B01D000F08EF800233B6000237B6001
:1015BC003B461946054801F01BFD0346002B01D0A4
:1015CC0000F080F800BF1837BD4680BD3401002004
:1015DC0080B586B000AF07F1080300221A605A608C
:1015EC009A60DA60294B9B69284A43F004039361A3
:1015FC00264B9B6903F004037B607B68234B9B6940
:10160C00224A43F008039361204B9B6903F00803C3
:10161C003B603B68002240F6FF711D4800F055FD11
:10162C00002240F6FF711B4800F04FFD40F6FF739F
:10163C00BB600123FB6000233B6102237B6107F14C
:10164C0008031946124800F0AFFB40F6FF73BB606D
:10165C000123FB6000233B6102237B6107F108033C
:10166C0019460C4800F0A0FB4FF46043BB6000230C
:10167C00FB6001233B6107F108031946044800F0A5
:10168C0093FB00BF1837BD4680BD00BF0010024061
:10169C0000080140000C014080B582B000AF7860BA
:1016AC0000F052F800F084F800F068F800F0AEF8A2
:1016BC00FEF764FDFEF7CEFDFEF738FE00BF0837DF
:1016CC00BD4680BD80B400AF72B600BFFEE700001F
:1016DC0080B483B000AF7860054A7B681360054B1B
:1016EC0000221A6000BF0C37BD4680BC704700BF9B
:1016FC000C0100201001002080B483B000AF786092
:10170C00054A7B681360054B00221A6000BF0C373A
:10171C00BD4680BC704700BF14010020180100209A
:10172C0080B483B000AF7860054A7B681360054BCA
:10173C0000221A6000BF0C37BD4680BC704700BF4A
:10174C001C0100202001002080B400AF094B1B6855
:10175C00002B0BDD074B1B68013B064A1360054B46
:10176C001B68002B02DC044B01221A6000BFBD4633
:10177C0080BC70470C0100201001002080B400AF29
:10178C00094B1B68002B0BDD074B1B68013B064A02
:10179C001360054B1B68002B02DC044B01221A6002
:1017AC0000BFBD4680BC704714010020180100200A
:1017BC0080B400AF094B1B68002B0BDD074B1B687B
:1017CC00013B064A1360054B1B68002B02DC044BE3
:1017DC0001221A6000BFBD4680BC70471C0100206E
:1017EC002001002080B483B000AF7860054A7B688C
:1017FC001360054B00221A6000BF0C37BD4680BC3D
:10180C00704700BF240100202801002080B400AFE5
:10181C00094B1B68002B0BDD074B1B68013B064A71
:10182C001360054B1B68002B02DC044B01221A6071
:10183C0000BFBD4680BC7047240100202801002059
:10184C0080B485B000AF154B9B69144A43F001037B
:10185C009361124B9B6903F00103BB60BB680F4B98
:10186C00DB690E4A43F08053D3610C4BDB6903F008
:10187C0080537B607B680A4B5B68FB60FB6823F0E2
:10188C00E063FB60FB6843F08063FB60044AFB6829
:10189C00536000BF1437BD4680BC70470010024037
:1018AC000000014080B584B000AF78607B681B6895
:1018BC00B3F1804F13D10C4BDB690B4A43F001039E
:1018CC00D361094BDB6903F00103FB60FB68002269
:1018DC0000211C2000F031FA1C2000F04AFA00BF55
:1018EC001037BD4680BD00BF0010024080B400AF71
:1018FC00FEE780B400AFFEE780B400AFFEE780B433
:10190C0000AFFEE780B400AFFEE780B400AF00BFCD
:10191C00BD4680BC704780B400AF00BFBD4680BCE4
:10192C00704780B400AF00BFBD4680BC704780B527
:10193C0000AF00F00FF900BF80BD000080B500AF14
:10194C00024801F077F800BF80BD00BF34010020D1
:10195C0080B400AF00BFBD4680BC704780B500AFFF
:10196C0000228021084800F0B0FB01224FF4807166
:10197C00054800F0AAFB01224FF40071024800F068
:10198C00A4FB00BF80BD00BF0008014080B500AFC4
:10199C0001228021084800F098FB01224FF480714D
:1019AC00054800F092FB00224FF40071024800F051
:1019BC008CFB00BF80BD00BF0008014080B500AFAC
:1019CC0001228021084800F080FB00224FF4807136
:1019DC00054800F07AFB01224FF40071024800F038
:1019EC0074FB00BF80BD00BF0008014080B500AF94
:1019FC0000228021084800F068FB01224FF480711E
:101A0C00054800F062FB01224FF40071024800F01F
:101A1C005CFB00BF80BD00BF000C014080B500AF77
:101A2C0001228021084800F050FB01224FF4807104
:101A3C00054800F04AFB00224FF40071024800F008
:101A4C0044FB00BF80BD00BF000C014080B500AF5F
:101A5C0001228021084800F038FB00224FF48071ED
:101A6C00054800F032FB01224FF40071024800F0EF
:101A7C002CFB00BF80BD00BF000C01400C480D4981
:101A8C000D4A002302E0D458C4500433C4188C42CD
:101A9C00F9D30A4A0A4C002301E013600432A24233
:101AAC00FBD3FFF755FF01F00DFBFFF7E5FC70478B
:101ABC0000000020C0000020D0310008C000002031
:101ACC0084010020FEE7000080B500AF084B1B68C6
:101ADC00074A43F010031360032000F023F90F2092
:101AEC0000F008F8FFF7ACFE0023184680BD00BFDD
:101AFC000020024080B582B000AF7860124B1A68AB
:101B0C00124B1B7819464FF47A73B3FBF1F3B2FB0B
:101B1C00F3F3184600F03BF90346002B01D00123E8
:101B2C000EE07B680F2B0AD8002279684FF0FF304B
:101B3C0000F003F9064A7B681360002300E00123E0
:101B4C0018460837BD4680BD5000002058000020C4
:101B5C005400002080B400AF054B1B781A46054B8F
:101B6C001B681344034A136000BFBD4680BC70471A
:101B7C00580000207C01002080B400AF024B1B6891
:101B8C001846BD4680BC70477C01002080B485B0EF
:101B9C0000AF78607B6803F00703FB600C4BDB68DD
:101BAC00BB60BA684FF6FF031340BB60FB681A02B8
:101BBC00BB68134343F0BF6343F40033BB60044A78
:101BCC00BB68D36000BF1437BD4680BC704700BFF4
:101BDC0000ED00E080B400AF044BDB681B0A03F09F
:101BEC0007031846BD4680BC704700BF00ED00E0FF
:101BFC0080B483B000AF0346FB7197F90730002B1C
:101C0C000BDBFB7903F01F02064997F907305B09E0
:101C1C00012000FA02F241F8232000BF0C37BD4628
:101C2C0080BC704700E100E080B483B000AF034695
:101C3C003960FB7197F90730002B0ADB3B68DAB28D
:101C4C000C4997F907301201D2B20B4483F80023E8
:101C5C000AE03B68DAB20849FB7903F00F03043B56
:101C6C001201D2B20B441A7600BF0C37BD4680BCB1
:101C7C00704700BF00E100E000ED00E080B489B0E7
:101C8C0000AFF860B9607A60FB6803F00703FB6192
:101C9C00FB69C3F10703042B28BF0423BB61FB6959
:101CAC000433062B02D9FB69033B00E000237B6164
:101CBC004FF0FF32BB6902FA03F3DA43BB681A40F8
:101CCC007B699A404FF0FF317B6901FA03F3D943EA
:101CDC007B680B40134318462437BD4680BC7047C5
:101CEC0080B582B000AF78607B68013BB3F1807F38
:101CFC0001D301230FE00A4A7B68013B53600F219B
:101D0C004FF0FF30FFF790FF054B00229A60044B19
:101D1C0007221A60002318460837BD4680BD00BF55
:101D2C0010E000E080B582B000AF78607868FFF713
:101D3C002DFF00BF0837BD4680BD80B586B000AF13
:101D4C000346B9607A60FB7300237B61FFF742FFA7
:101D5C0078617A68B9687869FFF790FF024697F95D
:101D6C000F3011461846FFF75FFF00BF1837BD460E
:101D7C0080BD80B582B000AF0346FB7197F9073088
:101D8C001846FFF735FF00BF0837BD4680BD80B54C
:101D9C0082B000AF78607868FFF7A2FF0346184660
:101DAC000837BD4680BD000080B48BB000AF7860B2
:101DBC00396000237B6200233B6248E101227B6A8D
:101DCC0002FA03F3FB613B681B68FA691340BB61C1
:101DDC00BA69FB699A4240F037813B685B68A34A59
:101DEC0093425ED0A14A934275D8A14A934258D0EF
:101DFC009F4A93426FD89F4A934252D09D4A934236
:101E0C0069D89D4A93424CD09B4A934263D89B4AD3
:101E1C00934246D0994A93425DD8122B2AD8122B62
:101E2C0059D801A252F823F0AF1E0008891E0008F1
:101E3C009B1E0008DD1E0008E31E0008E31E0008C0
:101E4C00E31E0008E31E0008E31E0008E31E000862
:101E5C00E31E0008E31E0008E31E0008E31E000852
:101E6C00E31E0008E31E0008E31E0008911E000894
:101E7C00A51E0008824A934213D02CE03B68DB6815
:101E8C003B6229E03B68DB6804333B6224E03B683F
:101E9C00DB6808333B621FE03B68DB680C333B625A
:101EAC001AE03B689B68002B02D104233B6213E0D1
:101EBC003B689B68012B05D108233B627B68FA6960
:101ECC001A6109E008233B627B68FA695A6103E0F6
:101EDC0000233B6200E000BFBB69FF2B01D87B688D
:101EEC0001E07B6804337B61BB69FF2B02D87B6A02
:101EFC009B0002E07B6A083B9B003B617B691A6894
:101F0C000F213B6901FA03F3DB431A40396A3B6941
:101F1C0001FA03F31A437B691A603B685B6803F0B0
:101F2C008053002B00F09080564B9B69554A43F030
:101F3C0001039361534B9B6903F00103BB60BB68C6
:101F4C00514A7B6A9B08023352F82330FB607B6A50
:101F5C0003F003039B000F2202FA03F3DB43FA683E
:101F6C001340FB607B68494A93420DD07B68484A1A
:101F7C00934207D07B68474A934201D1022304E085
:101F8C00032302E0012300E000237A6A02F003023B
:101F9C0092009340FA681343FB603B497B6A9B08B1
:101FAC000233FA6841F823203B685B6803F4803302
:101FBC00002B06D0384B1A683749BB6913430B60AA
:101FCC0006E0354B1A68BB69DB43334913400B60A1
:101FDC003B685B6803F40033002B06D02E4B5A6829
:101FEC002D49BB6913434B6006E02B4B5A68BB6908
:101FFC00DB43294913404B603B685B6803F4801357
:10200C00002B06D0244B9A682349BB6913438B6081
:10201C0006E0214B9A68BB69DB431F4913408B6078
:10202C003B685B6803F40013002B06D01A4BDA688C
:10203C001949BB691343CB6006E0174BDA68BB69DF
:10204C00DB4315491340CB607B6A01337B623B68F1
:10205C001A687B6A22FA03F3002B7FF4AFAE00BF41
:10206C0000BF2C37BD4680BC704700BF000032104B
:10207C00000031100000221000002110000012108E
:10208C000000111000100240000001400008014047
:10209C00000C0140001001400004014080B485B0E8
:1020AC0000AF78600B467B807B689A687B88134016
:1020BC00002B02D00123FB7301E00023FB73FB7B9D
:1020CC0018461437BD4680BC704780B483B000AF4F
:1020DC0078600B467B8013467B707B78002B03D09B
:1020EC007A887B681A6103E07B881A047B681A6122
:1020FC0000BF0C37BD4680BC704780B485B000AFC4
:10210C0078600B467B807B68DB68FB607A88FB68B9
:10211C0013401A04FB68D9437B880B401A437B6835
:10212C001A6100BF1437BD4680BC704780B586B0BD
:10213C0000AF78607B68002B01D101236CE27B68D7
:10214C001B6803F00103002B00F08780924B5B6847
:10215C0003F00C03042B0CD08F4B5B6803F00C03C7
:10216C00082B12D18C4B5B6803F48033B3F5803FA2
:10217C000BD1894B1B6803F40033002B6CD07B68AC
:10218C005B68002B68D1012346E27B685B68B3F582
:10219C00803F06D1804B1B687F4A43F48033136029
:1021AC002EE07B685B68002B0CD17B4B1B687A4A5A
:1021BC0023F480331360784B1B68774A23F4802315
:1021CC0013601DE07B685B68B3F5A02F0CD1724BDC
:1021DC001B68714A43F4802313606F4B1B686E4A73
:1021EC0043F4803313600BE06B4B1B686A4A23F497
:1021FC0080331360684B1B68674A23F48023136099
:10220C007B685B68002B13D0FFF7B6FC386108E0E5
:10221C00FFF7B2FC02463B69D31A642B01D90323A6
:10222C00FAE15D4B1B6803F40033002BF0D014E093
:10223C00FFF7A2FC386108E0FFF79EFC02463B6901
:10224C00D31A642B01D90323E6E1534B1B6803F427
:10225C000033002BF0D100E000BF7B681B6803F05B
:10226C000203002B63D04C4B5B6803F00C03002B78
:10227C000BD0494B5B6803F00C03082B1CD1464B6D
:10228C005B6803F48033002B16D1434B1B6803F0BF
:10229C000203002B05D07B681B69012B01D00123A5
:1022AC00BAE13D4B1B6823F0F8027B685B69DB00ED
:1022BC00394913430B603AE07B681B69002B20D033
:1022CC00364B01221A60FFF757FC386108E0FFF724
:1022DC0053FC02463B69D31A022B01D903239BE121
:1022EC002D4B1B6803F00203002BF0D02A4B1B680C
:1022FC0023F0F8027B685B69DB00274913430B6012
:10230C0015E0264B00221A60FFF736FC386108E016
:10231C00FFF732FC02463B69D31A022B01D9032387
:10232C007AE11D4B1B6803F00203002BF0D17B6894
:10233C001B6803F00803002B3AD07B689B69002BC9
:10234C0019D0174B01221A60FFF716FC386108E010
:10235C00FFF712FC02463B69D31A022B01D9032367
:10236C005AE10D4B5B6A03F00203002BF0D0012005
:10237C0000F0A6FA1CE00A4B00221A60FFF7FCFBE7
:10238C0038610FE0FFF7F8FB02463B69D31A022BCA
:10239C0008D9032340E100BF001002400000424274
:1023AC00800442429E4B5B6A03F00203002BE9D18E
:1023BC007B681B6803F00403002B00F0A68000234D
:1023CC00FB75974BDB6903F08053002B0DD1944BBD
:1023DC00DB69934A43F08053D361914BDB6903F083
:1023EC008053BB60BB680123FB758E4B1B6803F4E9
:1023FC008073002B18D18B4B1B688A4A43F4807373
:10240C001360FFF7B9FB386108E0FFF7B5FB024634
:10241C003B69D31A642B01D90323FDE0814B1B6864
:10242C0003F48073002BF0D07B68DB68012B06D1A2
:10243C007B4B1B6A7A4A43F0010313622DE07B68E5
:10244C00DB68002B0CD1764B1B6A754A23F0010319
:10245C001362734B1B6A724A23F0040313621CE071
:10246C007B68DB68052B0CD16D4B1B6A6C4A43F007
:10247C00040313626A4B1B6A694A43F0010313623B
:10248C000BE0674B1B6A664A23F001031362644B33
:10249C001B6A634A23F0040313627B68DB68002B1E
:1024AC0015D0FFF769FB38610AE0FFF765FB0246C0
:1024BC003B69D31A41F28832934201D90323ABE032
:1024CC00574B1B6A03F00203002BEED014E0FFF70E
:1024DC0053FB38610AE0FFF74FFB02463B69D31A06
:1024EC0041F28832934201D9032395E04C4B1B6A8D
:1024FC0003F00203002BEED1FB7D012B05D1484BE1
:10250C00DB69474A23F08053D3617B68DB69002B7E
:10251C0000F08180424B5B6803F00C03082B61D008
:10252C007B68DB69022B46D13F4B00221A60FFF718
:10253C0023FB386108E0FFF71FFB02463B69D31A07
:10254C00022B01D9032367E0354B1B6803F00073A2
:10255C00002BF0D17B681B6AB3F5803F08D1304B60
:10256C005B6823F400327B689B682D4913434B60F6
:10257C002B4B5B6823F474127B68196A7B685B6A6B
:10258C000B43274913434B60274B01221A60FFF77B
:10259C00F3FA386108E0FFF7EFFA02463B69D31A09
:1025AC00022B01D9032337E01D4B1B6803F000738A
:1025BC00002BF0D02FE01C4B00221A60FFF7DCFA46
:1025CC00386108E0FFF7D8FA02463B69D31A022BB0
:1025DC0001D9032320E0124B1B6803F00073002B7E
:1025EC00F0D118E07B68DB69012B01D1012313E0EA
:1025FC000B4B5B68FB60FB6803F480327B681B6AE7
:10260C009A4206D1FB6803F470127B685B6A9A42AB
:10261C0001D0012300E0002318461837BD4680BDC9
:10262C0000100240007000406000424280B584B04F
:10263C0000AF786039607B68002B01D10123D0E0BA
:10264C006A4B1B6803F007033A689A4210D9674B30
:10265C001B6823F0070265493B6813430B60634B0F
:10266C001B6803F007033A689A4201D00123B8E0D3
:10267C007B681B6803F00203002B20D07B681B686F
:10268C0003F00403002B05D0594B5B68584A43F404
:10269C00E06353607B681B6803F00803002B05D0D4
:1026AC00534B5B68524A43F460535360504B5B6826
:1026BC0023F0F0027B689B684D4913434B607B68A9
:1026CC001B6803F00103002B40D07B685B68012B77
:1026DC0007D1474B1B6803F40033002B15D10123A2
:1026EC007FE07B685B68022B07D1414B1B6803F0D2
:1026FC000073002B09D1012373E03D4B1B6803F0E1
:10270C000203002B01D101236BE0394B5B6823F0F2
:10271C0003027B685B68364913434B60FFF72CFA66
:10272C00F8600AE0FFF728FA0246FB68D31A41F278
:10273C008832934201D9032353E02D4B5B6803F09D
:10274C000C027B685B689B009A42EBD1274B1B68A1
:10275C0003F007033A689A4210D2244B1B6823F00B
:10276C00070222493B6813430B60204B1B6803F0A4
:10277C0007033A689A4201D0012332E07B681B6858
:10278C0003F00403002B08D0194B5B6823F4E062C0
:10279C007B68DB68164913434B607B681B6803F04E
:1027AC000803002B09D0124B5B6823F460527B6842
:1027BC001B69DB000E4913434B6000F021F8024605
:1027CC000B4B5B681B0903F00F030A49CB5C22FA25
:1027DC0003F3094A1360094B1B681846FFF78AF983
:1027EC00002318461037BD4680BD00BF00200240B4
:1027FC0000100240B83100085000002054000020A6
:10280C0090B48AB000AF2A4B3C1D0FCB84E80F006C
:10281C0040F201233B800023FB610023BB610023BA
:10282C007B6200237B6100233B62224B5B68FB6174
:10283C00FB6903F00C03042B02D0082B03D02DE012
:10284C001D4B3B622DE0FB699B0C03F00F0307F162
:10285C002802134413F8243C7B61FB6903F4803396
:10286C00002B13D0134B5B685B0C03F0010307F1D7
:10287C002802134413F8283CBB617B690E4A02FB07
:10288C0003F2BB69B2FBF3F37B6204E07B690B4A96
:10289C0002FB03F37B627B6A3B6202E0064B3B620A
:1028AC0000BF3B6A18462837BD4690BC704700BF36
:1028BC00A83100080010024000127A0000093D0007
:1028CC0080B485B000AF78600A4B1B680A4AA2FB43
:1028DC0003235B0A7A6802FB03F3FB6000BFFB680F
:1028EC005A1EFA60002BF9D100BF00BF1437BD4649
:1028FC0080BC704750000020D34D621080B582B070
:10290C0000AF78607B68002B01D1012341E07B682C
:10291C0093F83D30DBB2002B06D17B68002283F8A4
:10292C003C207868FEF7BEFF7B68022283F83D20CE
:10293C007B681A687B6804331946104600F06AFA03
:10294C007B68012283F846207B68012283F83E20B5
:10295C007B68012283F83F207B68012283F84020AA
:10296C007B68012283F841207B68012283F8422096
:10297C007B68012283F843207B68012283F8442082
:10298C007B68012283F845207B68012283F83D2077
:10299C00002318460837BD4680BD000080B485B0C2
:1029AC0000AF78607B6893F83D30DBB2012B01D02F
:1029BC00012335E07B68022283F83D207B681B688D
:1029CC00DA687B681B6842F00102DA607B681B687E
:1029DC00164A934209D07B681B68B3F1804F04D030
:1029EC007B681B68124A934211D17B681B689B68F9
:1029FC0003F00703FB60FB68062B10D07B681B6899
:102A0C001A687B681B6842F001021A6007E07B6859
:102A1C001B681A687B681B6842F001021A6000236D
:102A2C0018461437BD4680BC704700BF002C0140CF
:102A3C000004004080B582B000AF78607B681B68F2
:102A4C001B6903F00203022B22D17B681B68DB6835
:102A5C0003F00203022B1BD17B681B686FF0020290
:102A6C001A617B6801221A777B681B689B6903F0EB
:102A7C000303002B03D0786800F0B1F905E0786807
:102A8C0000F0A4F9786800F0B3F97B6800221A779B
:102A9C007B681B681B6903F00403042B22D17B6841
:102AAC001B68DB6803F00403042B1BD17B681B68D9
:102ABC006FF004021A617B6802221A777B681B682C
:102ACC009B6903F44073002B03D0786800F087F9FE
:102ADC0005E0786800F07AF9786800F089F97B688D
:102AEC0000221A777B681B681B6903F00803082B0C
:102AFC0022D17B681B68DB6803F00803082B1BD111
:102B0C007B681B686FF008021A617B6804221A77D5
:102B1C007B681B68DB6903F00303002B03D0786828
:102B2C0000F05DF905E0786800F050F9786800F085
:102B3C005FF97B6800221A777B681B681B6903F0BE
:102B4C001003102B22D17B681B68DB6803F0100389
:102B5C00102B1BD17B681B686FF010021A617B680D
:102B6C0008221A777B681B68DB6903F44073002B1F
:102B7C0003D0786800F033F905E0786800F026F9A6
:102B8C00786800F035F97B6800221A777B681B683F
:102B9C001B6903F00103012B0ED17B681B68DB68FA
:102BAC0003F00103012B07D17B681B686FF0010256
:102BBC001A617868FEF770FD7B681B681B6903F06F
:102BCC008003802B0ED17B681B68DB6803F08003CD
:102BDC00802B07D17B681B686FF080021A617868C4
:102BEC0000F067FA7B681B681B6903F04003402BFD
:102BFC000ED17B681B68DB6803F04003402B07D1C8
:102C0C007B681B686FF040021A61786800F0F9F875
:102C1C007B681B681B6903F02003202B0ED17B689B
:102C2C001B68DB6803F02003202B07D17B681B6833
:102C3C006FF020021A61786800F032FA00BF083792
:102C4C00BD4680BD80B584B000AF786039607B68CC
:102C5C0093F83C30012B01D10223B3E07B680122B5
:102C6C0083F83C207B68022283F83D207B681B683C
:102C7C009B68FB60FB6823F07703FB60FB6823F425
:102C8C007F43FB607B681B68FA689A603B681B6833
:102C9C00B3F5005F3ED0B3F5005F00F28780B3F56B
:102CAC00805F00F08580B3F5805F7FD8702B1AD0E1
:102CBC00702B7BD8602B50D0602B77D8502B3CD00E
:102CCC00502B73D8402B58D0402B6FD8302B64D05E
:102CDC00302B6BD8202B60D0202B67D8002B5CD0EE
:102CEC00102B5AD062E07B6818683B6899683B6887
:102CFC005A683B68DB6800F05CF97B681B689B6872
:102D0C00FB60FB6843F07703FB607B681B68FA6829
:102D1C009A604EE07B6818683B6899683B685A6813
:102D2C003B68DB6800F045F97B681B689A687B6838
:102D3C001B6842F480429A603BE07B6818683B68F1
:102D4C0059683B68DB681A4600F0BCF87B681B6866
:102D5C005021184600F013F92BE07B6818683B688B
:102D6C0059683B68DB681A4600F0DAF87B681B6828
:102D7C006021184600F003F91BE07B6818683B687B
:102D8C0059683B68DB681A4600F09CF87B681B6846
:102D9C004021184600F0F3F80BE07B681A683B689A
:102DAC001B681946104600F0EAF802E000BF00E08C
:102DBC0000BF7B68012283F83D207B68002283F8EA
:102DCC003C20002318461037BD4680BD80B483B02C
:102DDC0000AF786000BF0C37BD4680BC704780B434
:102DEC0083B000AF786000BF0C37BD4680BC704725
:102DFC0080B483B000AF786000BF0C37BD4680BC98
:102E0C00704780B483B000AF786000BF0C37BD460C
:102E1C0080BC704780B485B000AF786039607B6847
:102E2C001B68FB607B68254A934207D07B68B3F133
:102E3C00804F03D07B68224A934208D1FB6823F071
:102E4C007003FB603B685B68FA681343FB607B684C
:102E5C001A4A934207D07B68B3F1804F03D07B684A
:102E6C00174A934208D1FB6823F44073FB603B681C
:102E7C00DB68FA681343FB60FB6823F080023B6855
:102E8C005B691343FB607B68FA681A603B689A685D
:102E9C007B68DA623B681A687B689A627B68074ACF
:102EAC00934203D13B681A697B681A637B680122E1
:102EBC005A6100BF1437BD4680BC7047002C0140DE
:102ECC000004004080B487B000AFF860B9607A604D
:102EDC00FB681B6A7B61FB681B6A23F00102FB68C1
:102EEC001A62FB689B693B613B6923F0F0033B6111
:102EFC007B681B013A6913433B617B6923F00A032E
:102F0C007B617A69BB6813437B61FB683A699A61A0
:102F1C00FB687A691A6200BF1C37BD4680BC7047DB
:102F2C0080B487B000AFF860B9607A60FB681B6A48
:102F3C0023F01002FB681A62FB689B697B61FB68DB
:102F4C001B6A3B617B6923F470437B617B681B03C9
:102F5C007A6913437B613B6923F0A0033B61BB6837
:102F6C001B013A6913433B61FB687A699A61FB6800
:102F7C003A691A6200BF1C37BD4680BC704780B4EA
:102F8C0085B000AF786039607B689B68FB60FB683C
:102F9C0023F07003FB603A68FB68134343F00703AC
:102FAC00FB607B68FA689A6000BF1437BD4680BC32
:102FBC00704780B487B000AFF860B9607A603B604E
:102FCC00FB689B687B617B6923F47F437B613B6877
:102FDC001A027B681A43BB6813437A6913437B61FB
:102FEC00FB687A699A6000BF1C37BD4680BC70478D
:102FFC0080B485B000AF786039607B6893F83C3062
:10300C00012B01D1022341E07B68012283F83C2093
:10301C007B68022283F83D207B681B685B68FB6041
:10302C007B681B689B68BB60FB6823F07003FB60CC
:10303C003B681B68FA681343FB607B681B68FA6883
:10304C005A607B681B68144A934209D07B681B68E2
:10305C00B3F1804F04D07B681B68104A93420CD1AB
:10306C00BB6823F08003BB603B685B68BA681343A2
:10307C00BB607B681B68BA689A607B68012283F826
:10308C003D207B68002283F83C200023184614372F
:10309C00BD4680BC704700BF002C014000040040BE
:1030AC0080B483B000AF786000BF0C37BD4680BCE5
:1030BC00704780B483B000AF786000BF0C37BD465A
:1030CC0080BC704770B500260C4D0D4C641BA410D1
:1030DC00A64209D100F056F800260A4D0A4C641B92
:1030EC00A410A64205D170BD55F8043B9847013693
:1030FC00EEE755F8043B98470136F2E7C831000873
:10310C00C8310008C8310008CC310008034602441D
:10311C00934200D1704703F8011BF9E71FB50B4B25
:10312C00044600226946186800F012F8002805DAF7
:10313C004FF0FF324FF0FF33CDE90023DDE9000102
:10314C000CB1C4E9000104B010BD00BF5C0000204C
:10315C0038B50023064D0446084611462B6000F096
:10316C0009F8431C02D12B6803B1236038BD00BFA2
:10317C00800100205822024B4FF0FF301A6070473C
:10318C0080010020F8B500BFF8BC08BC9E46704713
:0C319C00F8B500BFF8BC08BC9E467047A8
:1031A80002030405060708090A0B0C0D0E0F101080
:1031B80000000000000000000102030406070809DF
:0431C80031010008C9
:0431CC000D010008E9
:1031D00001000000010000000100000001000000EB
:1031E00001000000010000000100000001000000DB
:1031F00001000000010000000100000001000000CB
:10320000C8000000050000000200000003000000EC
:1032100001000000020000000300000004000000A4
:103220000024F400100000000100000060000020F5
:10323000000000000000000000000000000000008E
:10324000000000000000000000000000000000007E
:10325000000000000000000000000000000000006E
:10326000000000000000000000000000000000005E
:10327000000000000000000000000000000000004E
:10328000000000000000000000000000000000003E
:0400000508001A894C
:00000001FF
