:020000040800F2
:100000000028002081190008F1170008F7170008E0
:10001000FD17000803180008091800080000000078
:100020000000000000000000000000000F180008A1
:100030001B180008000000002718000833180008EB
:10004000C9190008C9190008C9190008C919000808
:10005000C9190008C9190008C9190008C9190008F8
:10006000C9190008C9190008C9190008C9190008E8
:10007000C9190008C9190008C9190008C9190008D8
:10008000C9190008C9190008C9190008C9190008C8
:10009000C9190008C9190008C9190008C9190008B8
:1000A000C9190008C9190008C9190008C9190008A8
:1000B00041180008C919000800000000C91900080B
:1000C000C91900080000000000000000C91900085C
:1000D00000000000C9190008C9190008000000004C
:1000E000C9190008C9190008C91900080000000052
:1000F0000000000000000000000000000000000000
:0C01000000000000000000005FF808F1A3
:10010C0010B5054C237833B9044B13B10448AFF345
:10011C0000800123237010BDC000002000000000EF
:10012C008830000808B5034B1BB103490348AFF3F3
:10013C00008008BD00000000C400002088300008CA
:10014C0080B400AF064B1B68012B04D1044B00227A
:10015C001A60012300E000231846BD4680BC70479E
:10016C00DC00002080B400AF034B01221A6000BFFA
:10017C00BD4680BC704700BFDC00002080B500AFDE
:10018C001F4B1B681F4A13601F4B1B681C4A1360D4
:10019C004FF400511D4801F0FDFE03461A461A4B60
:1001AC001A60184B1A68164B1B689A4225D1144BCF
:1001BC001A68154B1B689A421FD1134B1A68144BC3
:1001CC001B689A420DD0104B1B68114A13600E4BE2
:1001DC001B68002B11D10F4BC8221A60FFF7C2FF0E
:1001EC000BE00C4B1B68013B0A4A1360094B1B6864
:1001FC00002B02D1064B01221A6000BF80BD00BF4C
:10020C00040000200000002008000020000801402D
:10021C000C0000203000002080B400AF064B1B689F
:10022C00012B04D1044B00221A60012300E00023AF
:10023C001846BD4680BC7047E000002080B400AF7B
:10024C00034B01221A6000BFBD4680BC704700BF43
:10025C00E000002080B500AF1F4B1B681F4A1360E5
:10026C001F4B1B681C4A13604FF480411D4801F062
:10027C0091FE03461A461A4B1A60184B1A68164B15
:10028C001B689A4225D1144B1A68154B1B689A426D
:10029C001FD1134B1A68144B1B689A420DD0104B8C
:1002AC001B68114A13600E4B1B68002B11D10F4BAE
:1002BC00C8221A60FFF7C2FF0BE00C4B1B68013B16
:1002CC000A4A1360094B1B68002B02D1064B012212
:1002DC001A6000BF80BD00BF140000201000002079
:1002EC0018000020000801401C00002030000020F5
:1002FC0080B400AF064B1B68012B04D1044B0022C9
:10030C001A60012300E000231846BD4680BC7047EC
:10031C00E400002080B400AF034B01221A6000BF40
:10032C00BD4680BC704700BFE400002080B500AF24
:10033C001F4B1B681F4A13601F4B1B681C4A136022
:10034C004FF400411D4801F025FE03461A461A4B96
:10035C001A60184B1A68164B1B689A4225D1144B1D
:10036C001A68154B1B689A421FD1134B1A68144B11
:10037C001B689A420DD0104B1B68114A13600E4B30
:10038C001B68002B11D10F4BC8221A60FFF7C2FF5C
:10039C000BE00C4B1B68013B0A4A1360094B1B68B2
:1003AC00002B02D1064B01221A6000BF80BD00BF9A
:1003BC00240000202000002028000020000801401C
:1003CC002C0000203000002080B500AFB24B1B6821
:1003DC00032B00F2D18201A252F823F0F90300089A
:1003EC008104000805060008C507000800F0F4FAAF
:1003FC00FFF7A6FE0346002B00F0C082A74B1B683C
:10040C00184601F00FF901224FF40061A44801F0E5
:10041C00D8FD01224FF40071A14801F0D2FD012258
:10042C004FF480719E4801F0CCFD01224FF4007115
:10043C009C4801F0C6FD01224FF48071994801F0EF
:10044C00C0FD01228021964801F0BBFD01228021D4
:10045C00944801F0B6FD904B1B6801338E4A136033
:10046C008D4B1B680133904A12681146184600F0F8
:10047C0073FF83E2FFF7D0FE0346002B0FD08B4BAC
:10048C001B680133894A1360834B1B68581C864BCD
:10049C001A68864B1B681344194600F05DFF844BA9
:1004AC001B68012B6FD1834B1B68002B02D0012BD7
:1004BC002FD05BE000224FF48061794801F081FD80
:1004CC0001224FF40061764801F07BFD00224FF4CD
:1004DC008061744801F075FD01224FF40061714890
:1004EC0001F06FFD734B1B68734A52F823301846AA
:1004FC0000F012FC6F4B1B6802336F4A52F823302A
:10050C00184600F099FD6B4B1B680133694A136068
:10051C002CE001224FF48061614801F052FD002271
:10052C004FF400615E4801F04CFD01224FF48061F4
:10053C005C4801F046FD00224FF40061594801F07F
:10054C0040FD5C4B1B685C4A52F82330184600F0A7
:10055C00E3FB584B1B680233574A52F823301846BA
:10056C0000F06AFD534B00221A6000BF80214C48FA
:10057C0001F03FFD80214B4801F03BFD474B1B68D0
:10058C00184601F04FF8FFF7B3FE0346002B0FD0CF
:10059C00454B1A68454B1B681344434A1360424B46
:1005AC001B681946022000F0D7FE404B00221A604F
:1005BC00FFF7C6FD0346002B00F0E28101228021EB
:1005CC00374801F0FEFC01228021364801F0F9FC8D
:1005DC00314B1B680133304A13602F4B1B680133BE
:1005EC00364A12681146184600F0B6FE2B4B1B68B3
:1005FC00184601F017F8C3E1FFF70EFE0346002B77
:10060C000FD02F4B1B6801332D4A1360224B1B68F4
:10061C00581C2A4B1A682A4B1B681344194600F0C5
:10062C009BFE234B1B68012B40F08880214B1B68E1
:10063C00002B02D0012B45D071E000224FF48061D9
:10064C00174801F0BEFC01224FF40061144801F080
:10065C00B8FC00224FF48061124801F0B2FC012278
:10066C004FF400610F4801F0ACFC124B1B68124AAE
:10067C0052F82330184600F04FFB0E4B1B68023328
:10068C000D4A52F82330184600F0D6FC094B1B6873
:10069C000133084A136042E00001002021300008B9
:1006AC0000080140000C014034000020E80000204C
:1006BC0010010020F4000020400000203800002031
:1006CC00EC00002001224FF48061B14801F079FC6C
:1006DC0000224FF40061AE4801F073FC01224FF48C
:1006EC008061AC4801F06DFC00224FF40061A94818
:1006FC0001F067FCA84B1B68A84A52F82330184637
:10070C0000F00AFBA44B1B680233A44A52F82330B6
:10071C00184600F091FCA04B00221A6000BF4FF469
:10072C0080719B4801F065FC4FF48071994801F091
:10073C0060FC9B4B1B68184600F074FFFFF7D8FD5C
:10074C000346002B12D0974B1A68974B1B68134427
:10075C00944A1360954B1B680133924A12681146F8
:10076C00184600F0F9FD904B00221A60FFF7E8FCE8
:10077C000346002B00F0068101224FF4807184485F
:10078C0001F01FFC01224FF48071824801F019FC2A
:10079C00864B1B680133854A1360844B1B680133FD
:1007AC00834A12681146184600F0D6FD7C4B1B6834
:1007BC00184600F037FFE5E0FFF72EFD0346002B4F
:1007CC000FD07C4B1B6801337A4A1360774B1B6844
:1007DC00581C774B1A68774B1B681344194600F06A
:1007EC00BBFD754B1B68012B71D16B4B1B68002B30
:1007FC0002D0012B2FD05BE000224FF480616448C3
:10080C0001F0DFFB01224FF40061614801F0D9FBDC
:10081C0000224FF480615F4801F0D3FB01224FF4BA
:10082C0000615C4801F0CDFB5B4B1B685B4A52F8E6
:10083C002330184600F070FA574B1B680233574AA6
:10084C0052F82330184600F0F7FB534B1B6801336A
:10085C00514A13602CE001224FF480614C4801F0A6
:10086C00B0FB00224FF40061494801F0AAFB0122C1
:10087C004FF48061474801F0A4FB00224FF4006163
:10088C00444801F09EFB444B1B68444A52F8233009
:10089C00184600F041FA404B1B6802333F4A52F8AD
:1008AC002330184600F0C8FB3B4B00221A6000BFF7
:1008BC004FF40071364801F09CFB4FF40071354841
:1008CC0001F097FB364B1B68184600F0ABFEFFF7A8
:1008DC000FFD0346002B12D0354B1A68354B1B68A5
:1008EC001344334A1360314B1B680133304A12688E
:1008FC001146184600F030FD2E4B00221A60FFF70F
:10090C001FFC0346002B3FD001224FF400712048FE
:10091C0001F057FB01224FF400711E4801F051FB0E
:10092C00264B1B681E4A126802FB03F35B00184639
:10093C0000F078FE1E4B1B68194A126802FB03F389
:10094C005B00184600F082FE1D4B01221A601D4B05
:10095C0002221A60194B1B681B4A1360144B1B684C
:10096C001A4A13601A4B01221A601A4B01221A60A0
:10097C000E4B00221A6007E000BF06E000BF04E047
:10098C0000BF02E000BF00E000BF00BF80BD00BFA1
:10099C0000080140000C0140F40000204000002041
:1009AC002130000838000020EC000020000100205D
:1009BC003C000020F000002010010020340000203A
:1009CC00F8000020FC000020280100202401002059
:1009DC00040100200801002080B500AF00224FF474
:1009EC008061234801F0EDFA00224FF400612048A9
:1009FC0001F0E7FA00224FF480611E4801F0E1FAA1
:100A0C0000224FF400611B4801F0DBFA00F040F8C3
:100A1C0000F0E2F8184B1B68012B27D1174B1B6811
:100A2C00012B23D1164B1B68012B1FD1154B1B68B7
:100A3C00184600F001FB144B1B68184600F06CF9CB
:100A4C00114B1B68013B104A13600E4B1B68013B9A
:100A5C000C4A1360094B00221A60094B00221A60E1
:100A6C000A4B1B685B00184600F004FE00BF80BDFB
:100A7C0000080140000C014020010020040100206E
:100A8C00080100202401002028010020213000084A
:100A9C0080B500AF484B1B68032B00F2898001A284
:100AAC0052F823F0C10A0008090B0008450B000896
:100ABC00810B0008404B01221A6000F0CBFE3F4B2B
:100ACC001B683F4A13603E4B1B68184600F024F924
:100ADC003B4B1B68013B3A4A1360642000F0CAFD93
:100AEC00384B01221A60354B1B68374A126802FBDF
:100AFC0003F35B00184600F095FD5AE000F0AAFEE7
:100B0C00324B1B68012B13D1314B1B682C4A1360E1
:100B1C00294B02221A602B4B01221A602C4B1B68AA
:100B2C00294A126802FB03F35B00184600F07AFDB9
:100B3C00244B01221A603CE000F0A4FE234B1B68FE
:100B4C00012B13D1234B1B681D4A13601A4B032234
:100B5C001A601C4B01221A601E4B1B681A4A126841
:100B6C0002FB03F35B00184600F05CFD154B012201
:100B7C001A601EE000F09EFE144B1B68012B13D173
:100B8C000E4B1B680E4A13600B4B01221A600D4B67
:100B9C0001221A60094B1B680B4A126802FB03F313
:100BAC005B00184600F03EFD064B01221A6000E087
:100BBC0000BF00BF80BD00BFF80000203400002043
:100BCC002801002004010020213000081001002021
:100BDC003C0000203800002080B500AF464B1B685D
:100BEC00032B00F2868001A252F823F0090C0008B6
:100BFC004B0C0008870C0008C30C00083E4B02226B
:100C0C001A6000F087FE3D4B1B683D4A13603C4B5D
:100C1C001B68184600F010FA394B1B68013B384A28
:100C2C001360364B1B68374A126802FB03F35B00F8
:100C3C00184600F00BFD344B01221A605AE000F00C
:100C4C0051FE324B1B68012B13D12C4B1B682C4AC9
:100C5C001360294B02221A602B4B01221A60274B7E
:100C6C001B68284A126802FB03F35B00184600F06D
:100C7C00EDFC254B01221A603CE000F04BFE234BAF
:100C8C001B68012B13D1224B1B681D4A13601A4B96
:100C9C0003221A601C4B01221A601D4B1B68194A57
:100CAC00126802FB03F35B00184600F0CFFC164BF6
:100CBC0001221A601EE000F045FE144B1B68012B4C
:100CCC0013D1144B1B680E4A13600B4B01221A6094
:100CDC000D4B01221A600F4B1B680A4A126802FB6B
:100CEC0003F35B00184600F0B1FC074B01221A60BD
:100CFC0000E000BF00BF80BDFC0000203C000020D5
:100D0C0024010020213000080801002018010020D7
:100D1C00380000203400002080B582B000AF78602D
:100D2C007B68092B00F2808101A252F823F000BFEE
:100D3C00650D0008AD0D0008F50D00083D0E00080E
:100D4C00850E0008CD0E0008150F00085D0F000879
:100D5C00A50F0008ED0F000800220121B54801F095
:100D6C0030F900220221B34801F02BF900220421B2
:100D7C00B04801F026F900220821AE4801F021F913
:100D8C0000221021AB4801F01CF900222021A948B7
:100D9C0001F017F901224021A64801F012F944E1B3
:100DAC0001220121A34801F00CF900220221A148E3
:100DBC0001F007F9002204219E4801F002F90122FA
:100DCC0008219C4801F0FDF801221021994801F0FE
:100DDC00F8F801222021974801F0F3F80122402174
:100DEC00944801F0EEF820E100220121914801F035
:100DFC00E8F8002202218F4801F0E3F801220421D7
:100E0C008C4801F0DEF8002208218A4801F0D9F85C
:100E1C0000221021874801F0D4F8012220218548B6
:100E2C0001F0CFF800224021824801F0CAF8FCE022
:100E3C00002201217F4801F0C4F8002202217D48E4
:100E4C0001F0BFF8002204217A4801F0BAF8002220
:100E5C000821784801F0B5F801221021754801F0FD
:100E6C00B0F801222021734801F0ABF80022402198
:100E7C00704801F0A6F8D8E0012201216D4801F07C
:100E8C00A0F8002202216B4801F09BF800220421FB
:100E9C00684801F096F801220821664801F091F8A3
:100EAC0001221021634801F08CF8002220216148B6
:100EBC0001F087F8002240215E4801F082F8B4E08E
:100ECC00002201215B4801F07CF8012202215948E3
:100EDC0001F077F800220421564801F072F8002244
:100EEC000821544801F06DF801221021514801F0FD
:100EFC0068F8002220214F4801F063F800224021BD
:100F0C004C4801F05EF890E000220121494801F0C4
:100F1C0058F801220221474801F053F8002204211D
:100F2C00444801F04EF800220821424801F049F8EB
:100F3C00002210213F4801F044F8002220213D48B6
:100F4C0001F03FF8002240213A4801F03AF86CE0F9
:100F5C0000220121374801F034F8002202213548E3
:100F6C0001F02FF800220421324801F02AF8012266
:100F7C000821304801F025F8012210212D4801F0FC
:100F8C0020F8012220212B4801F01BF801224021DE
:100F9C00284801F016F848E000220121254801F00C
:100FAC0010F800220221234801F00BF80022042142
:100FBC00204801F006F8002208211E4801F001F833
:100FCC00002210211B4800F0FCFF002220211948B0
:100FDC0000F0F7FF00224021164800F0F2FF24E059
:100FEC0000220121134800F0ECFF002202211148DD
:100FFC0000F0E7FF002204210E4800F0E2FF00227F
:10100C0008210C4800F0DDFF01221021094800F0F6
:10101C00D8FF00222021074800F0D3FF00224021F6
:10102C00044800F0CEFF00E000BF00BF0837BD460B
:10103C0080BD00BF0008014080B582B000AF786071
:10104C007B68092B00F2808101A252F823F000BFCB
:10105C0085100008CD100008151100085D1100085E
:10106C00A5110008ED110008351200087D120008CA
:10107C00C51200080D13000800220121B54800F02C
:10108C00A0FF00220221B34800F09BFF00220421A4
:10109C00B04800F096FF00220821AE4800F091FF06
:1010AC0000221021AB4800F08CFF00222021A9481F
:1010BC0000F087FF01224021A64800F082FF44E1A6
:1010CC0001220121A34800F07CFF00220221A1484B
:1010DC0000F077FF002204219E4800F072FF0122ED
:1010EC0008219C4800F06DFF01221021994800F066
:1010FC0068FF01222021974800F063FF0122402164
:10110C00944800F05EFF20E100220121914800F09C
:10111C0058FF002202218F4800F053FF01220421C6
:10112C008C4800F04EFF002208218A4800F049FF4D
:10113C0000221021874800F044FF0122202185481D
:10114C0000F03FFF00224021824800F03AFFFCE013
:10115C00002201217F4800F034FF002202217D484B
:10116C0000F02FFF002204217A4800F02AFF002211
:10117C000821784800F025FF01221021754800F065
:10118C0020FF01222021734800F01BFF0022402188
:10119C00704800F016FFD8E0012201216D4800F0E4
:1011AC0010FF002202216B4800F00BFF00220421EB
:1011BC00684800F006FF01220821664800F001FF94
:1011CC0001221021634800F0FCFE0022202161481E
:1011DC0000F0F7FE002240215E4800F0F2FEB4E081
:1011EC00002201215B4800F0ECFE0122022159484B
:1011FC0000F0E7FE00220421564800F0E2FE002237
:10120C000821544800F0DDFE01221021514800F065
:10121C00D8FE002220214F4800F0D3FE00224021AE
:10122C004C4800F0CEFE90E000220121494800F02D
:10123C00C8FE01220221474800F0C3FE002204210F
:10124C00444800F0BEFE00220821424800F0B9FEDE
:10125C00002210213F4800F0B4FE002220213D481E
:10126C0000F0AFFE002240213A4800F0AAFE6CE0EC
:10127C0000220121374800F0A4FE0022022135484B
:10128C0000F09FFE00220421324800F09AFE012259
:10129C000821304800F095FE012210212D4800F065
:1012AC0090FE012220212B4800F08BFE01224021D0
:1012BC00284800F086FE48E000220121254800F075
:1012CC0080FE00220221234800F07BFE0022042134
:1012DC00204800F076FE002208211E4800F071FE26
:1012EC00002210211B4800F06CFE0022202119481E
:1012FC0000F067FE00224021164800F062FE24E058
:10130C0000220121134800F05CFE0022022111484A
:10131C0000F057FE002204210E4800F052FE00227D
:10132C0008210C4800F04DFE01221021094800F064
:10133C0048FE00222021074800F043FE00224021F5
:10134C00044800F03EFE00E000BF00BF0837BD4679
:10135C0080BD00BF000C014080B483B000AF78604A
:10136C0039607B68184A82FB03129210DB17D31A80
:10137C00164A13607968144B83FB01239A10CB1720
:10138C00D21A13469B0013445B00CA1A0F4B5A60C7
:10139C003B680D4A82FB03129210DB17D31A0B4ADF
:1013AC0093603968084B83FB01239A10CB17D21A30
:1013BC0013469B0013445B00CA1A044BDA6000BF4F
:1013CC000C37BD4680BC70476766666640000020DF
:1013DC0080B500AF00F0F4FA00F01EF800F0A4F8AD
:1013EC0000F056F8094801F055FA084B5B680133D8
:1013FC00064AD26802FB03F35B00054AB2FBF3F327
:10140C001A46044B1A60FEF7DFFFFCE72C010020A4
:10141C0000127A002130000880B590B000AF07F1BF
:10142C00180328220021184601F0ECFD3B1D002278
:10143C001A605A609A60DA601A610223BB61012358
:10144C00BB621023FB6200237B6307F11803184671
:10145C0000F0E8FD0346002B01D000F0DDF80F236F
:10146C007B600023BB600023FB6000233B610023F7
:10147C007B613B1D0021184601F054F80346002BFC
:10148C0001D000F0C9F800BF4037BD4680BD000058
:10149C0080B586B000AF07F1080300221A605A60CD
:1014AC009A60DA603B4600221A605A601D4B4FF07E
:1014BC0080421A601B4B41F63F725A60194B002256
:1014CC009A60184B0A22DA60164B00221A61154BEF
:1014DC0000229A61134801F08DF90346002B01D0CC
:1014EC0000F09AF84FF48053BB6007F108031946DB
:1014FC000C4801F023FB0346002B01D000F08CF8C4
:10150C0000233B6000237B603B461946054801F0F5
:10151C00EBFC0346002B01D000F07EF800BF18371F
:10152C00BD4680BD2C01002080B586B000AF07F110
:10153C00080300221A605A609A60DA60294B9B6992
:10154C00284A43F004039361264B9B6903F0040380
:10155C007B607B68234B9B69224A43F008039361B1
:10156C00204B9B6903F008033B603B68002240F66C
:10157C00FF711D4800F025FD002240F6FF711B484D
:10158C0000F01FFD40F6FF73BB600123FB600023DE
:10159C003B6102237B6107F108031946124800F0F6
:1015AC007FFB40F6FF73BB600123FB6000233B61B4
:1015BC0002237B6107F1080319460C4800F070FB0D
:1015CC004FF46043BB600023FB6001233B6107F1D8
:1015DC0008031946044800F063FB00BF1837BD46EA
:1015EC0080BD00BF0010024000080140000C01400B
:1015FC0080B582B000AF786000F050F800F068F869
:10160C0000F080F8FEF7BAFDFEF724FEFEF78EFE22
:10161C0000BF0837BD4680BD80B400AF72B600BFB6
:10162C00FEE7000080B483B000AF7860054A7B68A9
:10163C001360054B00221A6000BF0C37BD4680BCFE
:10164C00704700BF0C0100201001002080B483B053
:10165C0000AF7860054A7B681360054B00221A6066
:10166C0000BF0C37BD4680BC704700BF1401002082
:10167C001801002080B483B000AF7860054A7B6805
:10168C001360054B00221A6000BF0C37BD4680BCAE
:10169C00704700BF1C0100202001002080B400AF67
:1016AC00094B1B68002B0BDD074B1B68013B064AE3
:1016BC001360054B1B68002B02DC044B01221A60E3
:1016CC0000BFBD4680BC70470C01002010010020FB
:1016DC0080B400AF094B1B68002B0BDD074B1B685C
:1016EC00013B064A1360054B1B68002B02DC044BC4
:1016FC0001221A6000BFBD4680BC70471401002057
:10170C001801002080B400AF094B1B68002B0BDDC7
:10171C00074B1B68013B064A1360054B1B68002BEB
:10172C0002DC044B01221A6000BFBD4680BC70472E
:10173C001C0100202001002080B485B000AF154BA7
:10174C009B69144A43F001039361124B9B6903F0AC
:10175C000103BB60BB680F4BDB690E4A43F080533F
:10176C00D3610C4BDB6903F080537B607B680A4BC5
:10177C005B68FB60FB6823F0E063FB60FB6843F095
:10178C008063FB60044AFB68536000BF1437BD469E
:10179C0080BC7047001002400000014080B584B04E
:1017AC0000AF78607B681B68B3F1804F13D10C4B92
:1017BC00DB690B4A43F00103D361094BDB6903F08E
:1017CC000103FB60FB68002200211C2000F031FAB1
:1017DC001C2000F04AFA00BF1037BD4680BD00BF88
:1017EC000010024080B400AFFEE780B400AFFEE70B
:1017FC0080B400AFFEE780B400AFFEE780B400AF6A
:10180C00FEE780B400AF00BFBD4680BC704780B41B
:10181C0000AF00BFBD4680BC704780B400AF00BFB6
:10182C00BD4680BC704780B500AF00F00FF900BF1B
:10183C0080BD000080B500AF024801F077F800BF12
:10184C0080BD00BF2C01002080B400AF00BFBD469E
:10185C0080BC704780B500AF00228021084800F0A2
:10186C00B0FB01224FF48071054800F0AAFB012265
:10187C004FF40071024800F0A4FB00BF80BD00BF14
:10188C000008014080B500AF01228021084800F01B
:10189C0098FB01224FF48071054800F092FB002266
:1018AC004FF40071024800F08CFB00BF80BD00BFFC
:1018BC000008014080B500AF01228021084800F0EB
:1018CC0080FB00224FF48071054800F07AFB012266
:1018DC004FF40071024800F074FB00BF80BD00BFE4
:1018EC000008014080B500AF00228021084800F0BC
:1018FC0068FB01224FF48071054800F062FB012265
:10190C004FF40071024800F05CFB00BF80BD00BFCB
:10191C00000C014080B500AF01228021084800F086
:10192C0050FB01224FF48071054800F04AFB002265
:10193C004FF40071024800F044FB00BF80BD00BFB3
:10194C00000C014080B500AF01228021084800F056
:10195C0038FB00224FF48071054800F032FB012265
:10196C004FF40071024800F02CFB00BF80BD00BF9B
:10197C00000C01400C480D490D4A002302E0D458DC
:10198C00C4500433C4188C42F9D30A4A0A4C0023BD
:10199C0001E013600432A242FBD3FFF755FF01F0C4
:1019AC000DFBFFF715FD704700000020C000002064
:1019BC00C8300008C00000207C010020FEE70000B9
:1019CC0080B500AF084B1B68074A43F01003136047
:1019DC00032000F023F90F2000F008F8FFF7ACFE0D
:1019EC000023184680BD00BF0020024080B582B0A5
:1019FC0000AF7860124B1A68124B1B7819464FF4E3
:101A0C007A73B3FBF1F3B2FBF3F3184600F03BF936
:101A1C000346002B01D001230EE07B680F2B0AD864
:101A2C00002279684FF0FF3000F003F9064A7B681A
:101A3C001360002300E0012318460837BD4680BD23
:101A4C0050000020580000205400002080B400AF4B
:101A5C00054B1B781A46054B1B681344034A13604D
:101A6C0000BFBD4680BC70475800002074010020A8
:101A7C0080B400AF024B1B681846BD4680BC704753
:101A8C007401002080B485B000AF78607B6803F0EF
:101A9C000703FB600C4BDB68BB60BA684FF6FF03B7
:101AAC001340BB60FB681A02BB68134343F0BF636F
:101ABC0043F40033BB60044ABB68D36000BF1437E7
:101ACC00BD4680BC704700BF00ED00E080B400AFA5
:101ADC00044BDB681B0A03F007031846BD4680BCA9
:101AEC00704700BF00ED00E080B483B000AF034648
:101AFC00FB7197F90730002B0BDBFB7903F01F020E
:101B0C00064997F907305B09012000FA02F241F807
:101B1C00232000BF0C37BD4680BC704700E100E0BD
:101B2C0080B483B000AF03463960FB7197F907307E
:101B3C00002B0ADB3B68DAB20C4997F9073012012B
:101B4C00D2B20B4483F800230AE03B68DAB20849AE
:101B5C00FB7903F00F03043B1201D2B20B441A764B
:101B6C0000BF0C37BD4680BC704700BF00E100E0F1
:101B7C0000ED00E080B489B000AFF860B9607A6025
:101B8C00FB6803F00703FB61FB69C3F10703042B3C
:101B9C0028BF0423BB61FB690433062B02D9FB6904
:101BAC00033B00E000237B614FF0FF32BB6902FA7C
:101BBC0003F3DA43BB681A407B699A404FF0FF315C
:101BCC007B6901FA03F3D9437B680B401343184636
:101BDC002437BD4680BC704780B582B000AF7860BA
:101BEC007B68013BB3F1807F01D301230FE00A4AEC
:101BFC007B68013B53600F214FF0FF30FFF790FFE4
:101C0C00054B00229A60044B07221A6000231846E9
:101C1C000837BD4680BD00BF10E000E080B582B043
:101C2C0000AF78607868FFF72DFF00BF0837BD461E
:101C3C0080BD80B586B000AF0346B9607A60FB7397
:101C4C0000237B61FFF742FF78617A68B968786995
:101C5C00FFF790FF024697F90F3011461846FFF731
:101C6C005FFF00BF1837BD4680BD80B582B000AFA6
:101C7C000346FB7197F907301846FFF735FF00BF95
:101C8C000837BD4680BD80B582B000AF78607868FB
:101C9C00FFF7A2FF034618460837BD4680BD00007B
:101CAC0080B48BB000AF7860396000237B62002376
:101CBC003B6248E101227B6A02FA03F3FB613B6859
:101CCC001B68FA691340BB61BA69FB699A4240F020
:101CDC0037813B685B68A34A93425ED0A14A93422A
:101CEC0075D8A14A934258D09F4A93426FD89F4AC5
:101CFC00934252D09D4A934269D89D4A93424CD00C
:101D0C009B4A934263D89B4A934246D0994A93424A
:101D1C005DD8122B2AD8122B59D801A252F823F0D5
:101D2C00A71D0008811D0008931D0008D51D000883
:101D3C00DB1D0008DB1D0008DB1D0008DB1D000897
:101D4C00DB1D0008DB1D0008DB1D0008DB1D000887
:101D5C00DB1D0008DB1D0008DB1D0008DB1D000877
:101D6C00DB1D0008891D00089D1D0008824A934256
:101D7C0013D02CE03B68DB683B6229E03B68DB68F6
:101D8C0004333B6224E03B68DB6808333B621FE0B2
:101D9C003B68DB680C333B621AE03B689B68002BAA
:101DAC0002D104233B6213E03B689B68012B05D1F5
:101DBC0008233B627B68FA691A6109E008233B62DD
:101DCC007B68FA695A6103E000233B6200E000BFC4
:101DDC00BB69FF2B01D87B6801E07B6804337B6116
:101DEC00BB69FF2B02D87B6A9B0002E07B6A083B35
:101DFC009B003B617B691A680F213B6901FA03F375
:101E0C00DB431A40396A3B6901FA03F31A437B69D5
:101E1C001A603B685B6803F08053002B00F09080E5
:101E2C00564B9B69554A43F001039361534B9B6995
:101E3C0003F00103BB60BB68514A7B6A9B08023309
:101E4C0052F82330FB607B6A03F003039B000F22E4
:101E5C0002FA03F3DB43FA681340FB607B68494AE0
:101E6C0093420DD07B68484A934207D07B68474A1F
:101E7C00934201D1022304E0032302E0012300E09A
:101E8C0000237A6A02F0030292009340FA6813432B
:101E9C00FB603B497B6A9B080233FA6841F82320BC
:101EAC003B685B6803F48033002B06D0384B1A6810
:101EBC003749BB6913430B6006E0354B1A68BB69A5
:101ECC00DB43334913400B603B685B6803F400331E
:101EDC00002B06D02E4B5A682D49BB6913434B601F
:101EEC0006E02B4B5A68BB69DB43294913404B6016
:101EFC003B685B6803F48013002B06D0244B9A6874
:101F0C002349BB6913438B6006E0214B9A68BB697C
:101F1C00DB431F4913408B603B685B6803F4001381
:101F2C00002B06D01A4BDA681949BB691343CB60F6
:101F3C0006E0174BDA68BB69DB4315491340CB60ED
:101F4C007B6A01337B623B681A687B6A22FA03F373
:101F5C00002B7FF4AFAE00BF00BF2C37BD4680BC5A
:101F6C00704700BF0000321000003110000022103A
:101F7C00000021100000121000001110001002408F
:101F8C000000014000080140000C0140001001401D
:101F9C000004014080B485B000AF78600B467B80B4
:101FAC007B689A687B881340002B02D00123FB735B
:101FBC0001E00023FB73FB7B18461437BD4680BC45
:101FCC00704780B483B000AF78600B467B801346BB
:101FDC007B707B78002B03D07A887B681A6103E0D6
:101FEC007B881A047B681A6100BF0C37BD4680BC25
:101FFC00704780B485B000AF78600B467B807B68FF
:10200C00DB68FB607A88FB6813401A04FB68D943D1
:10201C007B880B401A437B681A6100BF1437BD469E
:10202C0080BC704780B586B000AF78607B68002BB1
:10203C0001D101236CE27B681B6803F00103002BC8
:10204C0000F08780924B5B6803F00C03042B0CD0E0
:10205C008F4B5B6803F00C03082B12D18C4B5B6825
:10206C0003F48033B3F5803F0BD1894B1B6803F429
:10207C000033002B6CD07B685B68002B68D101238C
:10208C0046E27B685B68B3F5803F06D1804B1B68EA
:10209C007F4A43F4803313602EE07B685B68002B2F
:1020AC000CD17B4B1B687A4A23F480331360784B3A
:1020BC001B68774A23F4802313601DE07B685B6800
:1020CC00B3F5A02F0CD1724B1B68714A43F48023DB
:1020DC0013606F4B1B686E4A43F4803313600BE044
:1020EC006B4B1B686A4A23F480331360684B1B6884
:1020FC00674A23F4802313607B685B68002B13D042
:10210C00FFF7B6FC386108E0FFF7B2FC02463B690A
:10211C00D31A642B01D90323FAE15D4B1B6803F43A
:10212C000033002BF0D014E0FFF7A2FC386108E07C
:10213C00FFF79EFC02463B69D31A642B01D903239B
:10214C00E6E1534B1B6803F40033002BF0D100E0A5
:10215C0000BF7B681B6803F00203002B63D04C4B61
:10216C005B6803F00C03002B0BD0494B5B6803F04E
:10217C000C03082B1CD1464B5B6803F48033002BFB
:10218C0016D1434B1B6803F00203002B05D07B6870
:10219C001B69012B01D00123BAE13D4B1B6823F0D5
:1021AC00F8027B685B69DB00394913430B603AE04A
:1021BC007B681B69002B20D0364B01221A60FFF77D
:1021CC0057FC386108E0FFF753FC02463B69D31A11
:1021DC00022B01D903239BE12D4B1B6803F0020357
:1021EC00002BF0D02A4B1B6823F0F8027B685B694C
:1021FC00DB00274913430B6015E0264B00221A60C5
:10220C00FFF736FC386108E0FFF732FC02463B6909
:10221C00D31A022B01D903237AE11D4B1B6803F05F
:10222C000203002BF0D17B681B6803F00803002B22
:10223C003AD07B689B69002B19D0174B01221A608E
:10224C00FFF716FC386108E0FFF712FC02463B6909
:10225C00D31A022B01D903235AE10D4B5B6A03F00D
:10226C000203002BF0D0012000F0A6FA1CE00A4B70
:10227C0000221A60FFF7FCFB38610FE0FFF7F8FB58
:10228C0002463B69D31A022B08D9032340E100BF55
:10229C000010024000004242800442429E4B5B6AA6
:1022AC0003F00203002BE9D17B681B6803F00403E5
:1022BC00002B00F0A6800023FB75974BDB6903F025
:1022CC008053002B0DD1944BDB69934A43F0805320
:1022DC00D361914BDB6903F08053BB60BB68012376
:1022EC00FB758E4B1B6803F48073002B18D18B4B42
:1022FC001B688A4A43F480731360FFF7B9FB38619B
:10230C0008E0FFF7B5FB02463B69D31A642B01D9F1
:10231C000323FDE0814B1B6803F48073002BF0D08A
:10232C007B68DB68012B06D17B4B1B6A7A4A43F036
:10233C00010313622DE07B68DB68002B0CD1764B1C
:10234C001B6A754A23F001031362734B1B6A724AB2
:10235C0023F0040313621CE07B68DB68052B0CD1B3
:10236C006D4B1B6A6C4A43F0040313626A4B1B6A85
:10237C00694A43F0010313620BE0674B1B6A664A20
:10238C0023F001031362644B1B6A634A23F00403BA
:10239C0013627B68DB68002B15D0FFF769FB386193
:1023AC000AE0FFF765FB02463B69D31A41F288321B
:1023BC00934201D90323ABE0574B1B6A03F0020392
:1023CC00002BEED014E0FFF753FB38610AE0FFF767
:1023DC004FFB02463B69D31A41F28832934201D932
:1023EC00032395E04C4B1B6A03F00203002BEED148
:1023FC00FB7D012B05D1484BDB69474A23F0805309
:10240C00D3617B68DB69002B00F08180424B5B68F9
:10241C0003F00C03082B61D07B68DB69022B46D1DF
:10242C003F4B00221A60FFF723FB386108E0FFF7EF
:10243C001FFB02463B69D31A022B01D9032367E029
:10244C00354B1B6803F00073002BF0D17B681B6AC3
:10245C00B3F5803F08D1304B5B6823F400327B68C6
:10246C009B682D4913434B602B4B5B6823F4741210
:10247C007B68196A7B685B6A0B43274913434B6083
:10248C00274B01221A60FFF7F3FA386108E0FFF7D7
:10249C00EFFA02463B69D31A022B01D9032337E02A
:1024AC001D4B1B6803F00073002BF0D02FE01C4B6E
:1024BC0000221A60FFF7DCFA386108E0FFF7D8FA5F
:1024CC0002463B69D31A022B01D9032320E0124B9D
:1024DC001B6803F00073002BF0D118E07B68DB69FC
:1024EC00012B01D1012313E00B4B5B68FB60FB68F4
:1024FC0003F480327B681B6A9A4206D1FB6803F4B2
:10250C0070127B685B6A9A4201D0012300E00023C1
:10251C0018461837BD4680BD0010024000700040C0
:10252C006000424280B584B000AF786039607B684F
:10253C00002B01D10123D0E06A4B1B6803F0070389
:10254C003A689A4210D9674B1B6823F00702654919
:10255C003B6813430B60634B1B6803F007033A683B
:10256C009A4201D00123B8E07B681B6803F0020398
:10257C00002B20D07B681B6803F00403002B05D0D4
:10258C00594B5B68584A43F4E06353607B681B68A3
:10259C0003F00803002B05D0534B5B68524A43F4FD
:1025AC0060535360504B5B6823F0F0027B689B6870
:1025BC004D4913434B607B681B6803F00103002BF0
:1025CC0040D07B685B68012B07D1474B1B6803F439
:1025DC000033002B15D101237FE07B685B68022B55
:1025EC0007D1414B1B6803F00073002B09D1012369
:1025FC0073E03D4B1B6803F00203002B01D1012358
:10260C006BE0394B5B6823F003027B685B683649EF
:10261C0013434B60FFF72CFAF8600AE0FFF728FA37
:10262C000246FB68D31A41F28832934201D9032344
:10263C0053E02D4B5B6803F00C027B685B689B00DE
:10264C009A42EBD1274B1B6803F007033A689A4276
:10265C0010D2244B1B6823F0070222493B6813431A
:10266C000B60204B1B6803F007033A689A4201D0B9
:10267C00012332E07B681B6803F00403002B08D0B5
:10268C00194B5B6823F4E0627B68DB6816491343E3
:10269C004B607B681B6803F00803002B09D0124BBE
:1026AC005B6823F460527B681B69DB000E491343A3
:1026BC004B6000F021F802460B4B5B681B0903F0E2
:1026CC000F030A49CB5C22FA03F3094A1360094B46
:1026DC001B681846FFF78AF9002318461037BD46C9
:1026EC0080BD00BF0020024000100240B030000846
:1026FC00500000205400002090B48AB000AF2A4B48
:10270C003C1D0FCB84E80F0040F201233B800023DB
:10271C00FB610023BB6100237B6200237B610023F0
:10272C003B62224B5B68FB61FB6903F00C03042BDF
:10273C0002D0082B03D02DE01D4B3B622DE0FB6932
:10274C009B0C03F00F0307F12802134413F8243CED
:10275C007B61FB6903F48033002B13D0134B5B6854
:10276C005B0C03F0010307F12802134413F8283C17
:10277C00BB617B690E4A02FB03F2BB69B2FBF3F34C
:10278C007B6204E07B690B4A02FB03F37B627B6A8E
:10279C003B6202E0064B3B6200BF3B6A184628379F
:1027AC00BD4690BC704700BFA0300008001002402E
:1027BC0000127A0000093D0080B485B000AF78604B
:1027CC000A4B1B680A4AA2FB03235B0A7A6802FBCA
:1027DC0003F3FB6000BFFB685A1EFA60002BF9D1B3
:1027EC0000BF00BF1437BD4680BC704750000020AE
:1027FC00D34D621080B582B000AF78607B68002B3F
:10280C0001D1012341E07B6893F83D30DBB2002B12
:10281C0006D17B68002283F83C207868FEF7BEFF67
:10282C007B68022283F83D207B681A687B6804333E
:10283C001946104600F06AFA7B68012283F846209C
:10284C007B68012283F83E207B68012283F83F20BD
:10285C007B68012283F840207B68012283F84120A9
:10286C007B68012283F842207B68012283F8432095
:10287C007B68012283F844207B68012283F8452081
:10288C007B68012283F83D20002318460837BD469B
:10289C0080BD000080B485B000AF78607B6893F891
:1028AC003D30DBB2012B01D0012335E07B680222E5
:1028BC0083F83D207B681B68DA687B681B6842F0F4
:1028CC000102DA607B681B68164A934209D07B6868
:1028DC001B68B3F1804F04D07B681B68124A93428B
:1028EC0011D17B681B689B6803F00703FB60FB68D6
:1028FC00062B10D07B681B681A687B681B6842F03B
:10290C0001021A6007E07B681B681A687B681B6809
:10291C0042F001021A60002318461437BD4680BCF1
:10292C00704700BF002C01400004004080B582B00D
:10293C0000AF78607B681B681B6903F00203022BF5
:10294C0022D17B681B68DB6803F00203022B1BD1CE
:10295C007B681B686FF002021A617B6801221A7790
:10296C007B681B689B6903F00303002B03D078681A
:10297C0000F0B1F905E0786800F0A4F9786800F08F
:10298C00B3F97B6800221A777B681B681B6903F01C
:10299C000403042B22D17B681B68DB6803F004035F
:1029AC00042B1BD17B681B686FF004021A617B68D7
:1029BC0002221A777B681B689B6903F44073002B17
:1029CC0003D0786800F087F905E0786800F07AF9B0
:1029DC00786800F089F97B6800221A777B681B689D
:1029EC001B6903F00803082B22D17B681B68DB688A
:1029FC0003F00803082B1BD17B681B686FF00802DF
:102A0C001A617B6804221A777B681B68DB6903F008
:102A1C000303002B03D0786800F05DF905E07868BB
:102A2C0000F050F9786800F05FF97B6800221A77A3
:102A3C007B681B681B6903F01003102B22D17B6889
:102A4C001B68DB6803F01003102B1BD17B681B6821
:102A5C006FF010021A617B6808221A777B681B687A
:102A6C00DB6903F44073002B03D0786800F033F972
:102A7C0005E0786800F026F9786800F035F97B6895
:102A8C0000221A777B681B681B6903F00103012B7A
:102A9C000ED17B681B68DB6803F00103012B07D1A7
:102AAC007B681B686FF001021A617868FEF7A0FD65
:102ABC007B681B681B6903F08003802B0ED17B683D
:102ACC001B68DB6803F08003802B07D17B681B68D5
:102ADC006FF080021A61786800F067FA7B681B68F7
:102AEC001B6903F04003402B0ED17B681B68DB682D
:102AFC0003F04003402B07D17B681B686FF040024A
:102B0C001A61786800F0F9F87B681B681B6903F0A0
:102B1C002003202B0ED17B681B68DB6803F020039D
:102B2C00202B07D17B681B686FF020021A61786834
:102B3C0000F032FA00BF0837BD4680BD80B584B0C6
:102B4C0000AF786039607B6893F83C30012B01D181
:102B5C000223B3E07B68012283F83C207B680222CD
:102B6C0083F83D207B681B689B68FB60FB6823F047
:102B7C007703FB60FB6823F47F43FB607B681B6877
:102B8C00FA689A603B681B68B3F5005F3ED0B3F5FA
:102B9C00005F00F28780B3F5805F00F08580B3F5AD
:102BAC00805F7FD8702B1AD0702B7BD8602B50D0C5
:102BBC00602B77D8502B3CD0502B73D8402B58D04F
:102BCC00402B6FD8302B64D0302B6BD8202B60D09F
:102BDC00202B67D8002B5CD0102B5AD062E07B687E
:102BEC0018683B6899683B685A683B68DB6800F07A
:102BFC005CF97B681B689B68FB60FB6843F07703A0
:102C0C00FB607B681B68FA689A604EE07B6818680A
:102C1C003B6899683B685A683B68DB6800F045F98B
:102C2C007B681B689A687B681B6842F480429A60D8
:102C3C003BE07B6818683B6859683B68DB681A4660
:102C4C0000F0BCF87B681B685021184600F013F9A3
:102C5C002BE07B6818683B6859683B68DB681A4650
:102C6C0000F0DAF87B681B686021184600F003F965
:102C7C001BE07B6818683B6859683B68DB681A4640
:102C8C0000F09CF87B681B684021184600F0F3F8B4
:102C9C000BE07B681A683B681B681946104600F00D
:102CAC00EAF802E000BF00E000BF7B68012283F875
:102CBC003D207B68002283F83C2000231846103707
:102CCC00BD4680BD80B483B000AF786000BF0C37C8
:102CDC00BD4680BC704780B483B000AF786000BF45
:102CEC000C37BD4680BC704780B483B000AF7860B1
:102CFC0000BF0C37BD4680BC704780B483B000AFBA
:102D0C00786000BF0C37BD4680BC704780B485B07E
:102D1C0000AF786039607B681B68FB607B68254A74
:102D2C00934207D07B68B3F1804F03D07B68224A73
:102D3C00934208D1FB6823F07003FB603B685B682F
:102D4C00FA681343FB607B681A4A934207D07B688E
:102D5C00B3F1804F03D07B68174A934208D1FB68CC
:102D6C0023F44073FB603B68DB68FA681343FB6039
:102D7C00FB6823F080023B685B691343FB607B6854
:102D8C00FA681A603B689A687B68DA623B681A6872
:102D9C007B689A627B68074A934203D13B681A6945
:102DAC007B681A637B6801225A6100BF1437BD46E9
:102DBC0080BC7047002C01400004004080B487B0F8
:102DCC0000AFF860B9607A60FB681B6A7B61FB68D6
:102DDC001B6A23F00102FB681A62FB689B693B616A
:102DEC003B6923F0F0033B617B681B013A69134399
:102DFC003B617B6923F00A037B617A69BB681343EF
:102E0C007B61FB683A699A61FB687A691A6200BF58
:102E1C001C37BD4680BC704780B487B000AFF860EB
:102E2C00B9607A60FB681B6A23F01002FB681A62B7
:102E3C00FB689B697B61FB681B6A3B617B6923F4C4
:102E4C0070437B617B681B037A6913437B613B692D
:102E5C0023F0A0033B61BB681B013A6913433B6140
:102E6C00FB687A699A61FB683A691A6200BF1C3781
:102E7C00BD4680BC704780B485B000AF78603960C7
:102E8C007B689B68FB60FB6823F07003FB603A680F
:102E9C00FB68134343F00703FB607B68FA689A6096
:102EAC0000BF1437BD4680BC704780B487B000AFFC
:102EBC00F860B9607A603B60FB689B687B617B69FA
:102ECC0023F47F437B613B681A027B681A43BB681F
:102EDC0013437A6913437B61FB687A699A6000BF7C
:102EEC001C37BD4680BC704780B485B000AF78609D
:102EFC0039607B6893F83C30012B01D1022341E00F
:102F0C007B68012283F83C207B68022283F83D20F9
:102F1C007B681B685B68FB607B681B689B68BB609D
:102F2C00FB6823F07003FB603B681B68FA68134373
:102F3C00FB607B681B68FA685A607B681B68144AE4
:102F4C00934209D07B681B68B3F1804F04D07B6837
:102F5C001B68104A93420CD1BB6823F08003BB6002
:102F6C003B685B68BA681343BB607B681B68BA68D4
:102F7C009A607B68012283F83D207B68002283F8ED
:102F8C003C20002318461437BD4680BC704700BF58
:102F9C00002C01400004004080B483B000AF786086
:102FAC0000BF0C37BD4680BC704780B483B000AF07
:102FBC00786000BF0C37BD4680BC704770B50026EA
:102FCC000C4D0D4C641BA410A64209D100F056F810
:102FDC0000260A4D0A4C641BA410A64205D170BDF4
:102FEC0055F8043B98470136EEE755F8043B9847F3
:102FFC000136F2E7C0300008C0300008C0300008CD
:10300C00C430000803460244934200D1704703F8D1
:10301C00011BF9E71FB50B4B0446002269461868E3
:10302C0000F012F8002805DA4FF0FF324FF0FF33B2
:10303C00CDE90023DDE900010CB1C4E9000104B0C5
:10304C0010BD00BF5C00002038B50023064D0446BF
:10305C00084611462B6000F009F8431C02D12B687E
:10306C0003B1236038BD00BF780100205822024B09
:10307C004FF0FF301A60704778010020F8B500BFA0
:10308C00F8BC08BC9E467047F8B500BFF8BC08BC3D
:04309C009E46704795
:1030A00002030405060708090A0B0C0D0E0F101089
:1030B00000000000000000000102030406070809E8
:0430C00031010008D2
:0430C4000D010008F2
:1030C80001000000010000000100000001000000F4
:1030D80001000000010000000100000001000000E4
:1030E80001000000010000000100000001000000D4
:1030F800C8000000050000000200000003000000F6
:1031080001000000020000000300000004000000AD
:103118000024F400100000000100000060000020FE
:103128000000000000000000000000000000000097
:103138000000000000000000000000000000000087
:103148000000000000000000000000000000000077
:103158000000000000000000000000000000000067
:103168000000000000000000000000000000000057
:103178000000000000000000000000000000000047
:040000050800198155
:00000001FF
